:020000040800F2
:10000000B0AD00203D020008D7390008CF39000804
:10001000D3390008810700088D3F00080000000068
:10002000000000000000000000000000213B00086C
:10003000B309000800000000D9390008233B00087C
:100040006102000861020008610200086102000804
:1000500061020008610200086102000861020008F4
:1000600061020008610200086102000861020008E4
:1000700061020008610200086102000861020008D4
:1000800061020008610200086102000861020008C4
:1000900061020008610200086102000861020008B4
:1000A00061020008610200086102000861020008A4
:1000B0006102000861020008610200086102000894
:1000C0006102000861020008610200086102000884
:1000D000610200083D3F000861020008610200085B
:1000E0006102000861020008610200086102000864
:1000F0006102000861020008610200086102000854
:100100006102000861020008610200086102000843
:100110006102000861020008610200086102000833
:100120006102000879080008610200086102000805
:100130006102000861020008610200086102000813
:100140006102000861020008610200086102000803
:1001500061020008610200086102000861020008F3
:1001600061020008610200086102000861020008E3
:100170006102000861020008690800080000000030
:10018000610200086102000800F002F800F047F880
:100190000AA090E8000C82448344AAF10107DA45E2
:1001A00001D100F03CF8AFF2090EBAE80F0013F0ED
:1001B000010F18BFFB1A43F00103184790ED000030
:1001C000B0ED0000103A24BF78C878C1FAD85207C1
:1001D00024BF30C830C144BF04680C6070470000C1
:1001E0000023002400250026103A28BF78C1FBD840
:1001F000520728BF30C148BF0B607047642900F028
:10020000FB80752900F0F880782900F0318100200A
:1002100070471FB50AF070FC1FBD10B510BD00F08F
:100220007DFA1146FFF7F5FF0AF034F900F09BFA6A
:1002300003B4FFF7F2FF03BC03F0C6FE0C480168ED
:1002400041F4700101600B4880470B480047FEE70E
:10025000FEE7FEE7FEE7FEE7FEE7FEE7FEE7FEE776
:10026000FEE7000005480649044A064B70470000B7
:1002700088ED00E02D3B000889010008B0A90020AE
:10028000B0AD0020B0A90020704753EA020C00F086
:1002900069802DE9F04B4FF00006002B1FBFB3FA29
:1002A00083F503FA05F424FA05F65E4012BF1643FF
:1002B000B2FA82F502FA05F4C5F120051EBF22FA52
:1002C00005FC44EA0C04203556EA044C4FEA144479
:1002D00018BF641C4FF000084FF00009904271EB0A
:1002E000030C39D3002919BFB1FA81F701FA07F6D7
:1002F000B0FA80F700FA07F6C7F120071EBF20FA10
:1003000007FC46EA0C062037B6FBF4FCA7EB050712
:10031000103F07F01F0BCBF120060CFA0BFB2CFA59
:1003200006F644BFB3460026202FA4BF5E464FF01A
:10033000000B5BEA060C08BF4FF0010B19EB0B0931
:10034000ABFB027C48EB0608C01B06FB02CC0BFB98
:1003500003CC71EB0C01C1E70B460246414648460F
:10036000BDE8F08B13B54FF000004FF00001AFF384
:100370000080BDE81C4070470FB4044910B503AAC3
:10038000029800F09DF910BC5DF814FB0C000020F1
:100390002DE9F0410E460446002020622046E16827
:1003A000884730B3252805D0D4E901219047206A39
:1003B000401CF2E7E168204600278847050018D076
:1003C000A5F14100192802D820354FF400673246C4
:1003D000294620462760FFF711FF40B1012804D0CD
:1003E000F61D26F007060836D8E7361DD6E728465C
:1003F000DAE7206ABDE8F0812DE9F04106460024E5
:1004000010687529314616A510D0AFF3008000287A
:1004100002DA404213A507E031688A0701D512A528
:1004200002E0490704D511A5012401E0AFF30080E3
:1004300000210A2206F1240709E0B0FBF2FCB0FB20
:10044000F2F302FB1C00303078541846491C002897
:10045000F3D123462A463046BDE8F04100F0D6B835
:10046000000000002D0000002B0000002000000014
:1004700070B504460D4621461068AFF30080218810
:10048000090502D50F4A7A4402E00E4A7A440E3238
:10049000002104F1240305E000F00F060009965D39
:1004A0005E54491C0028F7D120780023000704D5AA
:1004B000702D02D009B1022311322046BDE87040F0
:1004C00000F0A4B899EA0000032A40F2308010F04E
:1004D000030C00F0158011F8013BBCF1020F6244DF
:1004E00098BF11F801CB00F8013B38BF11F8013B70
:1004F000A2F1040298BF00F801CB38BF00F8013B1D
:1005000011F0030300F02580083AC0F0088051F88C
:10051000043B083A51F804CBA0E80810F5E7121D97
:100520005CBF51F8043B40F8043BAFF30080D207B6
:1005300024BF11F8013B11F801CB48BF11F8012B82
:1005400024BF00F8013B00F801CB48BF00F8012BA5
:10055000704710B5203AC0F00B80B1E81850203A2F
:10056000A0E81850B1E81850A0E81850BFF4F5AF53
:100570005FEA027C24BFB1E81850A0E8185044BFDD
:1005800018C918C0BDE810405FEA827C24BF51F84A
:10059000043B40F8043B08BF7047D20728BF31F83E
:1005A000023B48BF11F8012B28BF20F8023B48BF8F
:1005B00000F8012B70474FF0000200B51346944637
:1005C0009646203922BFA0E80C50A0E80C50B1F1AB
:1005D0002001BFF4F7AF090728BFA0E80C5048BFBF
:1005E0000CC05DF804EB890028BF40F8042B08BF5D
:1005F000704748BF20F8022B11F0804F18BF00F859
:10060000012B704770477047704770472DE9F047DE
:100610000D4699469246044600F124080168880672
:1006200004D5E06921F01001216000E00120A8421A
:1006300001DD471B00E00027A1697A1902EB0900E0
:10064000081AA0612078C00602D42046AFF30080CB
:10065000002608E0D4E901211AF806009047206A34
:10066000401C761C20624E45F4DB2078C0060AD57B
:100670002046AFF3008006E0D4E901213020904706
:10068000206A401C2062381EA7F10107F4DC07E055
:10069000D4E9012118F805009047206A401C206227
:1006A000281EA5F10105F3DC2046AFF30080207879
:1006B000000602D50220BDE8F0870120FBE700001C
:1006C000074B70B50D467B4400F011F804462846F0
:1006D00000F020F810B14FF0FF3070BD204670BD23
:1006E0002B67000001694A1C02610878704700B559
:1006F0008FB0CDE901310021059105497944CDE95B
:10070000031011466846FFF743FE0FB000BD00001E
:10071000E5FFFFFF007B00F080007047754600F0AA
:100720002BF8AE4605006946534620F00700854683
:1007300018B020B5FFF796FDBDE820404FF0000649
:100740004FF000074FF000084FF0000B21F00701B9
:10075000AC46ACE8C009ACE8C009ACE8C009ACE8FC
:10076000C0098D46704710B50446AFF3008020469F
:10077000BDE81040FFF75CBD0048704750A900205D
:1007800000BFFEE770B50546AC6BA06B406D02285C
:1007900002D0012084F82500204600F07FF970BDCA
:1007A00070B506460025B46BA06A68B3A06B0068FC
:1007B000006800F40025A06A00F0010078B975B166
:1007C000A06B0068C568E26A082303FB025100229F
:1007D000A06B00F09AFCA06A401EA0622FE0A06B04
:1007E0000068006800F4002048BBA06B0068056941
:1007F000E26A082303FB02510122A06B00F085FC92
:10080000A06A401EA0621AE0A06B0068006800F4B5
:10081000002020B1D4E90D010968C8600FE0A06B89
:100820000068006800F4002048B9656BE06A0421A4
:1008300001FB0050A16B09680861206BA062A06AEF
:10084000216B88420ED12068C06840F00100216809
:10085000C8602068006800F00200022802D1012070
:1008600084F8250070BD000010B5024800F022F9A0
:1008700010BD000020A6002010B50249886B01F0D1
:10088000A3FC10BD20A600200146087810381823CC
:10089000B0FBF3F20848805CC865032A05D90868F4
:1008A0006FF30900001D886503E008686FF3090015
:1008B0008865886D704700001AAB0008014600206B
:1008C0008A6A8B69CBB932B1012A0DD0022A03D0D2
:1008D000032A10D10EE000BFCB6A03F08073B3F19E
:1008E000807F00D1012007E0CB6AB3F1C07F00D147
:1008F000012001E000E000BF34E08B69B3F5005F48
:100900001AD132B1012A07D0022A03D0032A11D109
:100910000AE000BF01200EE0CB6A03F08073B3F160
:10092000807F00D1012006E0CB6AB3F1C07F00D107
:10093000012000E000BF15E032B1012A05D0022AF3
:1009400004D0032A0CD103E000BF00BF012008E05F
:10095000CB6A03F08073B3F1807F00D1012000E007
:1009600000BF00BF704710B5046863608468402C06
:1009700004D10468A2600468E16003E00468A16037
:100980000468E26010BD30B50468246824F4802453
:1009900005682C60046863608468402C04D1046896
:1009A000A2600468E16003E00468A1600468E2609A
:1009B00030BD704770B504461D460023B5F5804F25
:1009C00013D154F822300C480340D1E9000640EA24
:1009D00006108E6840EA06208E8940EA06408E693D
:1009E0003043034344F8223003E06FF0704044F892
:1009F0002200002070BD00000000F0CF10B50346BB
:100A00000022086853F8202012480240D1E901046E
:100A10002043CC6820430C6920434C6920438C69F7
:100A20002043CC6920430C6A20434C6A20438C6AE3
:100A30002043CC6A2043CC6B20430C6B2043024301
:100A40008868082801D142F04002086843F8202055
:100A5000002010BD8000F0FF30B503460024501C7C
:100A600053F8204004F04044D1E9000540EA051065
:100A70008D6840EA05208D8940EA0545088A401EB8
:100A800045EA0055087D801E45EA00608D692843CF
:100A90000443501C43F82040002030BD7047000044
:100AA0000349884203D10121014A82F8401070476E
:100AB00020A6002070B504462068056905F00400F2
:100AC00004280ED121684861E06B40F00200E06329
:100AD000042084F825002248A16B0865A06B01F072
:100AE0005EFB05F0020002280ED121684861E06B30
:100AF00040F00100E063042084F825001848A16B51
:100B00000865A06B01F04BFB05F01000102804D124
:100B100021684861204600F06EF805F008000828BA
:100B200004D121684861204600F0EEFA05F001008A
:100B3000A0B12068006800F00200022805D12068FA
:100B4000C06820F01E002168C8602068C06820F0DE
:100B500001002168C8602046FFF7A2FF70BD0000B9
:100B60008507000810B504460CB9012010BD94F8A3
:100B7000250040B9002084F82400204600F03CF80D
:100B8000204600F039F8022084F82500206800682B
:100B900040F6F8718843216808606169606808431D
:100BA000E168084321690843A1680843A169084333
:100BB000216A084321680968084321680860606861
:100BC00010280BD1217F607F41EA0021A07F41EAFC
:100BD0000041E07F41EA0060216888612068C068C8
:100BE00040F01E002168C8600020E063012084F806
:100BF00025000020BAE7704710B586B004461421DE
:100C000001A8FFF7D8FCDA4884427DD100BF00BFBD
:100C100000200090D748006840F00100D5490860E6
:100C20000846006800F00100009000BF00BF00BF50
:100C300000BF00BF00200090081F006840F4800043
:100C4000091F08600846006800F48000009000BF9B
:100C500000BF00BF00BF00BF002000900846006832
:100C600040F0020008600846006800F002000090B2
:100C700000BF00BF00BF00BF00BF002000900846BB
:100C8000006840F0010008600846006800F00100BC
:100C9000009000BF00BF00BF00BF00BF0020009059
:100CA0000846006840F0010008600846006800F04F
:100CB0000100009000BF00BF00BF00BF00BF0020C8
:100CC00000900846006840F004000860084600688C
:100CD00000F00400009000BF00BF00BF00BF00BFD5
:100CE000002000900846006840F0040008600846B4
:100CF000006800F00400009000BF00BF00BF00BF0C
:100D000000BF0020009000E02FE10846006840F09E
:100D1000040008600846006800F00400009000BF6E
:100D200000BF00BF00BF00BF002000900846006861
:100D300040F0040008600846006800F004000090DD
:100D400000BF00BF00BF00BF00BF002000900846EA
:100D5000006840F0040008600846006800F00400E5
:100D6000009000BF00BF00BF00BF00BF0020009088
:100D70000846006840F0020008600846006800F07D
:100D80000200009000BF00BF00BF00BF00BF0020F6
:100D900000900846006840F01000086008460068AF
:100DA00000F01000009000BF00BF00BF00BF00BFF8
:100DB000002000900846006840F0100008600846D7
:100DC000006800F01000009000BF00BF00BF80204E
:100DD00001900220029001200390022004900D2037
:100DE000059001A9644801F0CFFB1020019002207A
:100DF000029001200390022004900D20059001A98B
:100E00005E4801F0C1FB40200190022002900120C9
:100E10000390022004900D20059001A9574801F08D
:100E2000B3FB402001900220029001200390022099
:100E300004900D20059001A9514801F0A5FB8020E8
:100E400001900220029001200390022004900D20C6
:100E5000059001A94A4801F097FB4FF4807001907A
:100E60000220029001200390022004900D200590A2
:100E700001A9434801F088FB4FF400700190022063
:100E8000029001200390022004900D20059001A9FA
:100E90003B4801F079FB4FF4006001900220029082
:100EA00001200390022004900D20059001A93448F0
:100EB00001F06AFB40200190022002900120039083
:100EC000022004900D20059001A92B4801F05CFB45
:100ED0002020019002200290012003900220049023
:100EE0000D20059001A9274801F04EFB40200190FC
:100EF0000220029001200390022004900D20059012
:100F000001A9204801F040FB1F48204908604FF02C
:100F10000070486000211D488160C16001614FF48C
:100F200080514161490081614911C16149020162F9
:100F300004214162012181620021C162016300BF7D
:100F4000A063846300BF01F05FFA022211464E20C5
:100F500001F09BFC4E2001F088FC03220221392085
:100F600001F093FC392001F080FC06B010BD0000B8
:100F700020A6002034380240000402400000024055
:100F800000080240001002402864024064A60020CD
:100F90002DE9F84304460F4615461E464FF000085B
:100FA00000BF94F82400012802D10220BDE8F88394
:100FB000012084F8240000BF022084F82500206866
:100FC000006840F48040216808602068006820F0D4
:100FD00002002168086020680068384321680860C2
:100FE0002448A16BC8632448A16BC8640020A16B8E
:100FF0000865A0622063B6F5803F08D2226802F13E
:10100000280133462A46A06B01F074FA24E01948FF
:10101000A16B48640120A062E662656305E0E06AB6
:101020004008E062A06A4000A062E06AB0F5803F3C
:10103000F5D2A06A801EA062A06A2063E06A042143
:1010400001FB0058E06A0090226802F12801434643
:101050002A46A06B00F062F82068006840F00100AA
:101060002168086000BF002084F8240000BF00BF92
:101070009CE70000A10700088507000838B5044672
:10108000204800680E21B0FBF1F00090002500BF61
:1010900094F82400012801D1022038BD012084F8F1
:1010A000240000BF022084F825002068006820F09A
:1010B00001002168086000BF0098411E009128B916
:1010C000E06B40F02000E063032505E02068006845
:1010D00000F001000028EFD100BF2068006820F474
:1010E000804021680860A06B01F004F8E06BE063C9
:1010F000012084F8250000BF002084F8240000BFF0
:101100002846CAE7000000207047034612B9186855
:10111000C16001E018680161002070472DE9F047C7
:1011200004460E4617461D46DDF820804FF00009A4
:10113000A068802804D1400060650120BDE8F087E8
:10114000E06B18B1606C08B1E06C18B940206065C4
:101150000120F3E700BF94F83400012801D10220F8
:10116000ECE7012084F8340000BF94F83500012832
:1011700073D1022084F83500002060652068006883
:1011800040F48020216808602068056143463A46A3
:1011900031462046FFF7E7FBFA49206888425DD9CF
:1011A000F9492068884201D1202052E0F5494839A8
:1011B0002068884201D120204BE0F349603120684B
:1011C000884201D1202044E0EE491831206888424D
:1011D00001D120203DE0EC4918312068884201D13E
:1011E000C01436E0E74930392068884201D1C01484
:1011F0002FE0E54978312068884201D1C01428E009
:10120000E04930312068884201D1C01421E0DE4934
:1012100030312068884202D14FF4001019E0D949DA
:1012200018392068884202D14FF4001011E0D649E5
:1012300090312068884202D14FF4001009E0D14972
:1012400048312068884202D14FF4001001E04FF08D
:101250000060CC494C39086020E1EFE3CA49A8316D
:10126000206888425CD9C8492068884201D1202082
:1012700052E0C44948392068884201D120204BE01F
:10128000C14960312068884201D1202044E0BD4935
:1012900018312068884201D120203DE0BA49183138
:1012A0002068884201D1C01436E0B6493039206840
:1012B000884201D1C0142FE0B349783120688842B8
:1012C00001D1C01428E0AF4930312068884201D1F3
:1012D000C01421E0AC4930312068884202D14FF47B
:1012E000001019E0A74918392068884202D14FF44C
:1012F000001011E0A44990312068884202D14FF4D7
:10130000001009E09F4948312068884202D14FF41B
:10131000001001E04FF000609A4950390860BDE0CC
:1013200099494831206888425CD9974920688842A9
:1013300001D1202052E0934948392068884201D1E8
:1013400020204BE0904960312068884201D1202064
:1013500044E08C4918312068884201D120203DE0CA
:10136000894918312068884201D1C01436E0854986
:1013700030392068884201D1C0142FE08249783189
:101380002068884201D1C01428E07E4930312068AD
:10139000884201D1C01421E07B4930312068884265
:1013A00002D14FF4001019E07649183920688842BC
:1013B00002D14FF4001011E0734990312068884247
:1013C00002D14FF4001009E06E494831206888428C
:1013D00002D14FF4001001E04FF000606A4910396B
:1013E000C8605BE068492068884201D1202052E053
:1013F000644948392068884201D120204BE0624985
:1014000060312068884201D1202044E05D491831D4
:101410002068884201D120203DE05B4918312068D6
:10142000884201D1C01436E05649303920688842DC
:1014300001D1C0142FE0544978312068884201D18D
:10144000C01428E04F4930312068884201D1C014CF
:1014500021E04D4930312068884202D14FF400101C
:1014600019E0484918392068884202D14FF4001029
:1014700011E0454990312068884202D14FF40010B4
:1014800009E0404948312068884202D14FF40010F9
:1014900001E04FF000603C4910398860394920680C
:1014A00088425CD938492068884201D1102052E036
:1014B000344948392068884201D110204BE0324934
:1014C00060312068884201D1102044E02D49183154
:1014D0002068884201D110203DE02B491831206856
:1014E000884201D1001536E026493039206888420B
:1014F00001D100152FE0244978312068884201D1BC
:10150000001528E01F4930312068884201D10015BC
:1015100021E01D4930312068884202D14FF480100B
:1015200019E0184918392068884202D14FF4801018
:1015300011E0154990312068884202D14FF48010A3
:1015400009E0104948312068884202D14FF48010E8
:1015500001E04FF080600B494C39086020E10A49F6
:10156000A831206888425FD907492068884201D1A4
:10157000102055E0034948392068884206D11020E0
:101580004EE000005864024010600240F8492068B4
:10159000884201D1102043E0F6492068884201D1F9
:1015A00010203DE0F24948392068884201D10015F9
:1015B00036E0F04948392068884201D100152FE013
:1015C000EB4918312068884201D1001528E0E9492B
:1015D00018312068884201D1001521E0E4493039F2
:1015E0002068884202D14FF4801019E0E149303977
:1015F0002068884202D14FF4801011E0DC4930317C
:101600002068884202D14FF4801009E0D949303176
:101610002068884202D14FF4801001E04FF08060D2
:10162000D44968390860BBE0D1491839206888423C
:101630005BD9CF4960392068884201D1102050E041
:10164000CC4960392068884201D1102049E0C8495E
:101650002068884201D1102043E0C64920688842B2
:1016600001D110203DE0C24948392068884201D1AB
:10167000001536E0BF4948392068884201D100157D
:101680002FE0BB4918312068884201D1001528E0BD
:10169000B84918312068884201D1001521E0B449C9
:1016A00030392068884202D14FF4801019E0B149E6
:1016B00030392068884202D14FF4801011E0AC49E3
:1016C00030312068884202D14FF4801009E0A949E6
:1016D00030312068884202D14FF4801001E04FF091
:1016E0008060A3497039C8605AE0A1496039206818
:1016F000884201D1102050E09E496039206888421C
:1017000001D1102049E09A492068884201D1102077
:1017100043E098492068884201D110203DE0944977
:1017200048392068884201D1001536E0914948398E
:101730002068884201D100152FE08D4918312068BA
:10174000884201D1001528E08A4918312068884272
:1017500001D1001521E0864930392068884202D144
:101760004FF4801019E0834930392068884202D153
:101770004FF4801011E07E4930312068884202D158
:101780004FF4801009E07B4930312068884202D153
:101790004FF4801001E04FF0806075497039886027
:1017A00074491839206888425BD9714960392068CA
:1017B000884201D1082050E06E4960392068884293
:1017C00001D1082049E06A492068884201D10820F7
:1017D00043E068492068884201D108203DE064491F
:1017E00048392068884201D1401536E061494839BE
:1017F0002068884201D140152FE05D4918312068EA
:10180000884201D1401528E05A49183120688842A1
:1018100001D1401521E0564930392068884202D173
:101820004FF4002019E0534930392068884202D132
:101830004FF4002011E04E4930312068884202D137
:101840004FF4002009E04B4930312068884202D132
:101850004FF4002001E04FF0007046496439086001
:101860001FE143494831206888425BD940496039CB
:101870002068884201D1082050E03E496039206844
:10188000884201D1082049E039492068884201D1C5
:10189000082043E037492068884201D108203DE014
:1018A000334948392068884201D1401536E0314932
:1018B00048392068884201D140152FE02C49183161
:1018C0002068884201D1401528E02A491831206853
:1018D000884201D1401521E02549303920688842ED
:1018E00002D14FF4002019E02249303920688842A3
:1018F00002D14FF4002011E01D49303120688842A8
:1019000002D14FF4002009E01A49303120688842A2
:1019100002D14FF4002001E04FF000701549683902
:101920000860BEE012491839206888425DD9104924
:1019300060392068884201D1082052E00D496039A1
:101940002068884201D108204BE00949206888427C
:1019500001D1082045E007492068884201D10820CC
:101960003FE0034948392068884205D1401538E0F6
:101970007060024070640240FA492068884201D1D8
:1019800040152EE0F8492068884201D1401528E032
:10199000F44960312068884201D1401521E0F249C4
:1019A00048392068884202D14FF4002019E0ED49FF
:1019B00018312068884202D14FF4002011E0EA4932
:1019C00018312068884202D14FF4002009E0E5492F
:1019D00078312068884202D14FF4002001E04FF0B6
:1019E0000070E1498839C8605BE0DF4978392068D8
:1019F000884201D1082051E0DA491839206888422C
:101A000001D108204AE0D84918392068884201D11C
:101A1000082043E0D34948312068884201D108209A
:101A20003CE0D14960392068884201D1401535E059
:101A3000CC492068884202D140152FE04CE3CA49C6
:101A40002068884201D1401528E0C64960312068ED
:101A5000884201D1401521E0C349483920688842B5
:101A600002D14FF4002019E0BE49183120688842A5
:101A700002D14FF4002011E0BB49183120688842A0
:101A800002D14FF4002009E0B6497831206888423D
:101A900002D14FF4002001E04FF00070B2498839C4
:101AA0008860B0493031206888425BD9AE497839C6
:101AB0002068884201D1042050E0AA4918392068E2
:101AC000884201D1042049E0A7491839206888429A
:101AD00001D1042042E0A34948312068884201D165
:101AE00004203BE0A04960392068884201D180157C
:101AF00034E09C492068884201D180152EE09A4943
:101B00002068884201D1801528E09649603120681C
:101B1000884201D1801521E09349483920688842E4
:101B200002D14FF4802019E08E4918312068884294
:101B300002D14FF4802011E08B491831206888428F
:101B400002D14FF4802009E086497831206888422C
:101B500002D14FF4802001E04FF0807081491C39A0
:101B600008601EE180493031206888425BD97E4997
:101B700078392068884201D1042050E07949183929
:101B80002068884201D1042049E07749183920684B
:101B9000884201D1042042E07249483120688842DD
:101BA00001D104203BE0704960392068884201D1AE
:101BB000801534E06B492068884201D180152EE001
:101BC00069492068884201D1801528E06549603163
:101BD0002068884201D1801521E063494839206896
:101BE000884202D14FF4802019E05E491831206804
:101BF000884202D14FF4802011E05B4918312068FF
:101C0000884202D14FF4802009E05649783120689B
:101C1000884202D14FF4802001E04FF0807051499A
:101C200020390860BDE050493039206888425BD9CE
:101C30004D4978392068884201D1042050E0494953
:101C400018392068884201D1042049E046491839F2
:101C50002068884201D1042042E04249483120688E
:101C6000884201D104203BE03F4960392068884226
:101C700001D1801534E03B492068884201D18015AC
:101C80002EE039492068884201D1801528E0354985
:101C900060312068884201D1801521E032494839FD
:101CA0002068884202D14FF4802019E02D49183174
:101CB0002068884202D14FF4802011E02A4918316F
:101CC0002068884202D14FF4802009E0254978310C
:101CD0002068884202D14FF4802001E04FF08070EC
:101CE00021498839C8605CE01F49783920688842FA
:101CF00001D1042052E01B4918392068884201D1E3
:101D000004204BE0184918392068884201D104208A
:101D100044E0144948312068884201D104203DE064
:101D2000114960392068884201D1801536E00D499B
:101D30002068884201D1801530E00B492068884234
:101D400001D180152AE0074960312068884201D11D
:101D5000801523E0044948392068884206D14FF4B1
:101D600080201BE02864024088600240DF49206830
:101D7000884202D14FF4802010E0DD49206888427B
:101D800002D14FF4802009E0D849603120688842B0
:101D900002D14FF4802001E04FF08070D449A03987
:101DA0008860D2491831206888425BD9D04990397F
:101DB0002068884201D1012050E0CC4930392068A8
:101DC000884201D1012049E0C94930392068884260
:101DD00001D1012042E0C54930312068884201D15B
:101DE00001203BE0C24978392068884201D1402077
:101DF00034E0BE4918392068884201D140202DE0E6
:101E0000BB4918392068884201D1402026E0B749F3
:101E100048312068884201D140201FE0B449603930
:101E20002068884202D14FF4803017E0AF49206823
:101E3000884202D14FF4803010E0AD4920688842DA
:101E400002D14FF4803009E0A8496031206888420F
:101E500002D14FF4803001E04FF48000A3493439BF
:101E600008601CE1A2491831206888425BD9A0496A
:101E700090392068884201D1012050E09B493039D7
:101E80002068884201D1012049E099493039206811
:101E9000884201D1012042E09449303120688842D3
:101EA00001D101203BE0924978392068884201D174
:101EB000402034E08D4918392068884201D1402003
:101EC0002DE08B4918392068884201D1402026E056
:101ED000864948312068884201D140201FE084496A
:101EE00060392068884202D14FF4803017E07F4982
:101EF0002068884202D14FF4803010E07C4920688D
:101F0000884202D14FF4803009E07849603120687E
:101F1000884202D14FF4803001E04FF480007349D1
:101F200038390860BBE072494839206888425BD97B
:101F30006F4990392068884201D1012050E06B49F7
:101F400030392068884201D1012049E068493039A0
:101F50002068884201D1012042E064493031206884
:101F6000884201D101203BE06149783920688842EC
:101F700001D1402034E05D4918392068884201D100
:101F800040202DE05A4918392068884201D140206C
:101F900026E0564948312068884201D140201FE0A0
:101FA000534960392068884202D14FF4803017E0ED
:101FB0004E492068884202D14FF4803010E04C49ED
:101FC0002068884202D14FF4803009E047496031EF
:101FD0002068884202D14FF4803001E04FF4800045
:101FE0004349A039C8605AE0414990392068884285
:101FF00001D1012050E03D4930392068884201D1AB
:10200000012049E03A4930392068884201D1012055
:1020100042E0364930312068884201D101203BE05E
:10202000334978392068884201D1402034E02F4973
:1020300018392068884201D140202DE02C491839F8
:102040002068884201D1402026E028494831206894
:10205000884201D140201FE025496039206888422C
:1020600002D14FF4803017E020492068884202D125
:102070004FF4803010E01E492068884202D14FF4AE
:10208000803009E0194960312068884202D14FF45C
:10209000803001E04FF480001549A0398860206845
:1020A000006840F01600216808602068406940F030
:1020B000800021684861206C08B9A06C28B12068B4
:1020C000006840F00800216808602068006840F05F
:1020D00001002168086006E000BF002084F8340099
:1020E00000BF4FF002094846FFF728B8406402409D
:1020F000A060024070B50446A56D00F065FB064681
:1021000094F83500022808D08020606500BF0020C8
:1021100084F8340000BF012070BD2068006820F002
:102120001600216808602068406920F0800021685E
:102130004861206C08B9A06C28B12068006820F0C4
:102140000800216808602068006820F0010021680C
:1021500008600FE000F038FB801B05280AD920201A
:10216000606500BF002084F8340000BF032084F8BD
:102170003500D1E72068006800F001000028E9D1AF
:1021800094F85C103F208840A86000BF002084F8CD
:10219000340000BF012084F835000020BCE7014670
:1021A00091F83500022803D080204865012070474F
:1021B000052081F835000868006820F001000A68F1
:1021C00010600020F3E70000F8B5044600200090FE
:1021D0008C4800684FF41651B0FBF1F7A56D2E68DE
:1021E00094F85C1008208840304098B1206800685E
:1021F00000F0040070B12068006820F0040021683D
:10220000086094F85C1008208840A860606D40F079
:102210000100606594F85C1001208840304068B18E
:102220002068406900F0800040B194F85C10012003
:102230008840A860606D40F00200606594F85C1012
:1022400004208840304068B12068006800F0020037
:1022500040B194F85C1004208840A860606D40F0A4
:102260000400606594F85C1010208840304078B31A
:102270002068006800F0080050B394F85C1010204B
:102280008840A8602068006800F4802080B1206841
:10229000006800F4002028B9206CC8B12046216CE9
:1022A000884715E0A06C98B12046A16C88470FE0E4
:1022B0002068006800F4807028B92068006820F069
:1022C000080021680860206C10B12046216C884706
:1022D00094F85C10202088403040002865D02068A9
:1022E000006800F0100000285FD094F85C102020F7
:1022F0008840A86094F83500052828D12068006837
:1023000020F01600216808602068406920F08000F5
:1023100021684861206C08B9A06C28B12068006869
:1023200020F008002168086094F85C103F20884085
:10233000A86000BF002084F8340000BF012084F8AA
:102340003500206D10B12046216D8847F8BD20680A
:10235000006800F4802080B12068006800F400204C
:1023600028B9606C10B12046616C88471DE0E06BB5
:10237000D8B12046E16B884717E02068006800F478
:10238000807068B92068006820F01000216808603B
:1023900000BF002084F8340000BF012084F835001D
:1023A000E06B10B12046E16B8847606D38B3606D1B
:1023B00000F00100F0B1052084F8350020680068C5
:1023C00020F001002168086000BF0098401C0090C8
:1023D000B84200D905E02068006800F0010000283C
:1023E000F3D100BF00BF002084F8340000BF0120FB
:1023F00084F83500E06C10B12046E16C884700BFDE
:10240000A4E70000000000202DE9F041044600256B
:1024100000F0DAF9074614B90120BDE8F081606ADE
:1024200000B100BF00BF002084F8340000BF0220CC
:1024300084F835002068006820F0010021680860F9
:102440000AE000F0C1F9C01B052805D9202060650D
:10245000032084F83500E0E72068006800F0010000
:102460000028EED12068056821480540D4E9010123
:102470000843E16808432169084361690843A16989
:102480000843E1690843216A08430543606A042858
:1024900003D1D4E90B010843054320680560206897
:1024A000456925F00705606A0543606A04280DD177
:1024B000A06A0543E06A48B12046FEF7FFF928B15B
:1024C00040206065012084F83500A6E7206845615A
:1024D0002046FEF7D9F9064694F85C103F20884064
:1024E000B06000206065012084F83500002094E78A
:1024F0003F8010F02DE9F04704460D4616461F4672
:102500004FF00008D4F8589000BF94F83400012828
:1025100002D10220BDE8F087012084F8340000BF1A
:1025200094F83500012825D1022084F835000020D8
:1025300060653B46324629462046FEF724FA94F869
:102540005C103F208840C9F808002068006840F00F
:10255000160021680860206C28B12068006840F0EF
:102560000800216808602068006840F001002168C8
:10257000086006E000BF002084F8340000BF4FF080
:1025800002084046C6E70000F8B502460B460025A3
:10259000002400200021DEE0012606FA01F51E6875
:1025A00006EA0504AC4275D11E7906F00306012E39
:1025B00004D01E7906F00306022E13D190684F0056
:1025C0000326BE40B0434F00DE68BE4030439060FB
:1025D000506801268E40B0431E79C6F300168E4027
:1025E000304350601E7906F00306032E09D0D068F0
:1025F0004F000326BE40B0434F009E68BE403043AC
:10260000D0601E7906F00306022E13D1CF0802F126
:10261000200656F827004E07F70E0F26BE40B0439F
:102620004F07FF0E1E69BE403043CF0802F120065F
:1026300046F8270010684F000326BE40B0431E79BD
:1026400006F003064F00BE40304310605E6806F09F
:102650008056B6F1805F7DD100BF00260096404EC7
:10266000366846F480463E4F3E603E46366806F485
:102670008046009600BF00BF3A4E8F0856F82700EC
:102680008E07370F0F26BE40B043374EB24202D1FD
:10269000002624E05EE0354EB24201D101261EE064
:1026A000334EB24201D1022619E0324EB24201D17C
:1026B000032614E0304EB24201D104260FE02F4E23
:1026C000B24201D105260AE02D4EB24201D10626C2
:1026D00005E02C4EB24201D1072600E008268F0704
:1026E0003F0FBE4030431F4E8F0846F82700264E4E
:1026F0003068A0435E6806F48036B6F5803F00D1AE
:102700002043214E3060361D3068A0435E6806F4D9
:102710000036B6F5003F00D120431B4E361D306019
:10272000361D3068A0435E6806F48016B6F5801F3B
:1027300000D12043144E08363060361D3068A04367
:102740005E6806F40016B6F5001F00D120430E4E59
:102750000C363060491C1029FFF41EAFF8BD000094
:1027600044380240083801400000024000040240A2
:1027700000080240000C0240001002400014024019
:1027800000180240001C0240003C01400246136950
:102790000B400BB1012000E00020704710B54269EA
:1027A00021EA020302EA010443EA0443836110BD03
:1027B0000AB1816101E00B04836170470148006840
:1027C000000C7047002004E00148006870470000DA
:1027D00014000020034800680349097808440149AF
:1027E00008607047140000201C00002010B50A4843
:1027F000006840F40070084908600846006840F42A
:1028000080600860032000F07FF80F2000F006F8D9
:1028100000F02AF8002010BD003C024070B50446CC
:102820000E4800784FF47A71B1FBF0F00C4909685A
:10283000B1FBF0F5284600F075FE08B1012070BD2F
:10284000102C07D200222146501E00F01EF8054829
:10285000046001E00120F2E70020F0E71C00002006
:10286000000000201800002070470146084600289C
:1028700009DB00F01F0301229A4043099B0003F18A
:10288000E023C3F8002100BF70472DE9F05F8046C8
:102890000D461646002701F07BFB074639462A46BF
:1028A000334601F00700C0F1070ABAF1040F02D95C
:1028B0004FF0040A01E0C0F1070AD14600F1040A12
:1028C000BAF1070F02D24FF0000A01E0A0F1030AAB
:1028D000D4464FF0010A0AFA09FAAAF1010A0AEAF3
:1028E000020A0AFA0CFA4FF0010B0BFA0CFBABF1DF
:1028F000010B0BEA030B4AEA0B042146404601F0A8
:102900004FFBBDE8F09F000000BF00F00702064B40
:1029100019684FF6FF031940044B0B4343EA0221A9
:10292000014B196000BF70470CED00E00000FA0594
:1029300070B504460D460CB9012070BD58480068BA
:1029400000F00700A84209D255490D7008460068FA
:1029500000F00700A84201D00120EEE7207800F047
:10296000020002281DD1207800F00400042805D1BF
:102970004C48006840F4E0504A490860207800F074
:102980000800082805D14748006840F460404549E0
:1029900008604448006820F0F000A16808434149FD
:1029A0000860207800F00100A8B36068012807D112
:1029B0003C4808380068C0F34040B8B90120BCE783
:1029C0006068022802D06068032807D135480838BB
:1029D0000068C0F3406048B90120AEE731480838CC
:1029E0000068C0F3400008B90120A6E72D48006840
:1029F00020F00300616808432A490860FFF7E4FEFD
:102A0000064609E0FFF7E0FE801B41F2883188426C
:102A100002D9032091E707E02248006800F00C008B
:102A20006168B0EB810FEDD11D48006800F0070030
:102A3000A84209D91A490D700846006800F007003D
:102A4000A84201D0012078E7207800F00400042893
:102A500007D11448006820F4E050E16808431149A8
:102A60000860207800F00800082808D10D480068A8
:102A700020F46040216940EAC1000A49086000F082
:102A80003FF808490968C1F30311074A515CC8407F
:102A90000649086006480068FFF7C0FE00204CE7C2
:102AA000003C02400838024002AB00080000002051
:102AB0001800002001480068704700000000002056
:102AC00000B5FFF7F7FF04490968C1F38221034A03
:102AD000515CC84000BD00000838024012AB00083D
:102AE00000B5FFF7E7FF04490968C1F34231034A23
:102AF000515CC84000BD00000838024012AB00081D
:102B00002DE9F047002400250026A146254800684D
:102B100000F00C0020B1042805D008283AD105E0C7
:102B2000DFF8849039E0DFF8849036E01D48001F1C
:102B3000006800F03F041B48001F006800F480009C
:102B400078B11A481749091F0968C1F38811A0FB19
:102B500001700146224600233846FDF796FB0546E4
:102B60000EE011480F49091F0968C1F38811A0FB45
:102B700001700146224600233846FDF786FB0546D4
:102B80000848001F0068C0F30140401C4600B5FB28
:102B9000F6F902E0DFF8109000BF00BF4846BDE83C
:102BA000F0870000083802400024F40000127A0088
:102BB000F8B504460CB90120F8BD207800F00100FA
:102BC000002874D0F948006800F00C0004280DD0EB
:102BD000F648006800F00C00082813D1F348001FE5
:102BE000006800F48000B0F5800F0BD1EF48083882
:102BF0000068C0F34040002859D06068002856D1D2
:102C00000120D9E700BF6068B0F5803F08D1E748F0
:102C10000838006840F48030E449083908601EE054
:102C20006068B0F5A02F0DD1E0480838006840F486
:102C30008020DE49083908600846006840F480308A
:102C400008600CE0D9480838006820F48030D74983
:102C5000083908600846006820F48020086000BF3A
:102C6000606890B1FFF7B0FD054606E0FFF7ACFDE8
:102C7000401B642801D903209EE7CC48083800682F
:102C8000C0F340400028F1D011E0FFF79DFD05465C
:102C900006E0FFF799FD401B642801D903208BE76C
:102CA000C24808380068C0F340400028F1D12078BD
:102CB00000F0020002285FD1BC48006800F00C0060
:102CC00058B1BA48006800F00C0008281CD1B74879
:102CD000001F006800F48000B0B9B44808380068EC
:102CE000C0F3400020B1E068012801D0012063E773
:102CF000AE480838006820F0F800216940EAC100B9
:102D0000AA490839086037E0E06800B30120A84903
:102D10000860FFF759FD054606E0FFF755FD401B2B
:102D2000022801D9032047E7A04808380068C0F30B
:102D300040000028F1D09D480838006820F0F800D5
:102D4000216940EAC10099490839086014E000206F
:102D500097490860FFF738FD054606E0FFF734FDA8
:102D6000401B022801D9032026E790480838006854
:102D7000C0F340000028F1D1207800F008000828B6
:102D80002CD16069A8B101208A490860FFF71CFDB9
:102D9000054606E0FFF718FD401B022801D9032075
:102DA0000AE782486C300068C0F340000028F1D088
:102DB00014E000207F490860FFF706FD054606E0A5
:102DC000FFF702FD401B022801D90320F4E67748F3
:102DD0006C300068C0F340000028F1D1207800F08A
:102DE0000400042870D1002770483830006800F0D3
:102DF000805090B900BF002000906C4838300068C7
:102E000040F080506949383108600846006800F099
:102E10008050009000BF00BF01276748006800F4A1
:102E20008070B0B96448006840F4807062490860FE
:102E3000FFF7CAFC054606E0FFF7C6FC401B022868
:102E400001D90320B8E65C48006800F480700028CF
:102E5000F2D000BFA068012808D15448683000684B
:102E600040F001005149683108601DE0A068052864
:102E70000DD14E486830006840F004004B4968317D
:102E800008600846006840F0010008600CE0474810
:102E90006830006820F00100444968310860084645
:102EA000006820F00400086000BFA068A8B1FFF728
:102EB0008BFC054609E0FFF787FC401B41F2883197
:102EC000884202D9032077E626E038486830006857
:102ED000C0F340000028EED013E0FFF775FC054674
:102EE00008E0FFF771FC401B41F28831884201D9AC
:102EF000032061E62D4868300068C0F340000028D8
:102F0000EFD1012F07D129483830006820F08050D8
:102F100026493831086000BFA069002845D0234801
:102F2000006800F00C0008285DD0A069022845D197
:102F300000201F490866FFF747FC054606E0FFF73B
:102F400043FC401B022801D9032035E61748083806
:102F50000068C0F340600028F1D1D4E907010843BC
:102F6000616A40EA81110122A06AC2EB500041EA85
:102F700000412C20005D41EA00600C49091F0860F7
:102F800001200B490866FFF71FFC054606E0FFF726
:102F90001BFC401B022801D903200DE6034808381A
:102FA0000068C0F340600028F1D049E008380240D2
:102FB00000004742800E4742007000400020214937
:102FC0000866FFF701FC054606E0FFF7FDFB401B26
:102FD000022801D90320EFE51B480068C0F34060D8
:102FE0000028F2D12CE0A069012800D1E4E51648C0
:102FF000001D0668A069012820D006F48001E06960
:1030000081421BD106F03F01206A814216D147F66A
:10301000C0703040616AB0EB811F0FD106F44031BF
:103020000122A06AC2EB5000B1EB004F06D106F0BE
:1030300070612C20005DB1EB006F01D00120BBE579
:103040000020B9E5000047420038024010B50446B0
:103050000CB9012010BD606A38B96068B0F5827F94
:1030600000D105E00021E16102E000212161616100
:10307000A06AB0F5005F00D100BF94F8510028B9F4
:10308000002084F85000204600F04FF8022084F819
:1030900051002068006820F0400021680860A08886
:1030A00000F48270218901F404410843A18901F4EC
:1030B00000610843217C01F002010843217D01F0F9
:1030C00001010843218B01F400710843217F01F0C5
:1030D000380108432021095D01F080010843218D5A
:1030E00001F400510843216808600421A06901EA45
:1030F000104094F8241001F0100108432168486042
:10310000A06AB0F5005F03D1A08D80B2216808618C
:103110002068C06920F400602168C86100206065F3
:10312000012084F85100002094E770472DE9F04F0A
:1031300085B00446884691461D460E9E00200490A8
:10314000012002900020019000BF94F85000012857
:1031500003D1022005B0BDE8F08F012084F85000B3
:1031600000BFFFF731FB074694F851B06068039049
:10317000AA46BBF1010F0BD00398B0F5827F04D1B2
:10318000A06810B9BBF1040F02D0022001902CE11D
:10319000B8F1000F03D0B9F1000F00D015B901202C
:1031A000019022E194F85100042802D0052084F80F
:1031B000510000206065C4F83890E587A587C4F801
:1031C0003080E586A58620646064A06AB0F5005F63
:1031D0000DD100BF2068006820F40050216808600D
:1031E0002068006840F400502168086000BF206833
:1031F000006800F04000402805D02068006840F0DA
:10320000400021680860E068B0F5006F56D1606842
:1032100010B1BAF1010F09D1206B00882168C86094
:10322000206B801C2063E08E401EE0863FE020681B
:10323000806800F0020002281CD1E08ED0B1029814
:10324000012817D1206B00882168C860206B801C82
:103250002063E08E401EE08600200290E08E48B998
:10326000A06AB0F5005F05D12068006840F4805086
:10327000216808602068806800F0010068B1E08F74
:1032800058B12068C068A16B0880A06B801CA06347
:10329000E08F401EE08701200290FFF795FAC01BE7
:1032A000B04204D3701C10B1032001909DE0E08E69
:1032B0000028BCD1E08F0028B9D156E0606810B179
:1032C000BAF1010F09D1206B007821680873206BD7
:1032D000401C2063E08E401EE08640E0206880684D
:1032E00000F0020002281CD1E08ED0B10298012823
:1032F00017D1206B007821680873206B401C206375
:10330000E08E401EE08600200290E08E48B9A06A60
:10331000B0F5005F05D12068006840F48050216856
:1033200008602068806800F0010068B1E08F58B143
:103330002068C068A16B0870A06B401CA063E08F80
:10334000401EE08701200290FFF73EFAC01BB0420A
:1033500001D3701C00B916B90320019045E0E08E3E
:103360000028BBD1E08F0028B8D1A06AB0F5005F7B
:1033700012D13346012211462046009700F064FB2B
:1033800030B1606D40F002006065032001902CE0D8
:103390002068C068049000BF2068806800F01000BA
:1033A000102809D1606D40F0020060654FF6EF70A3
:1033B00021688860012001903A463146204600F09D
:1033C0000DFB20B101200190202060650DE0A06878
:1033D00050B900BF002000902068C06800902068AD
:1033E0008068009000BF00BF00BF012084F851003A
:1033F00000BF002084F8500000BF0198AAE670B515
:1034000004460E4615460CB9012070BD94F84900DB
:1034100028B9002084F84800204600F01DF804F187
:1034200008012068FDF7EAFA3146A2682068FDF736
:1034300013FB2946236BD4E90102FDF7BBFAA1680F
:10344000206850F8210040F00100A268216841F88E
:1034500022000020D9E7000010B586B0044600BF66
:10346000002000902248006840F0010020490860D8
:103470000846006800F00100009000BF00BF00BFD8
:10348000002000901A480838006840F008001849E9
:10349000083908600846006800F00800009000BF86
:1034A00000BF00BF002000900846006840F01000F8
:1034B00008600846006800F01000009000BF00BFE0
:1034C0004CF2037001900220029001200390022030
:1034D00004900C20059001A90648FFF755F84FF617
:1034E0008070019001A90448FFF74EF806B010BDA6
:1034F00038380240000C024000100240042808D175
:103500004FF0E021096941F004014FF0E022116120
:1035100007E04FF0E021096921F004014FF0E022BB
:103520001161704770B504462546681EB0F1807F72
:1035300001D301200FE0681E4FF0E02148610F2108
:103540004FF0FF3000F02CFD00204FF0E0218861AB
:1035500007200861002070BD7047704701460022B7
:10356000002391F83D2091F83E3042EA0300704775
:103570002DE9F84F0446206805682068C668206871
:1035800047694FF00009CA4605F00F09B9F1000F6D
:103590000AD105F0200038B106F0200020B1204605
:1035A00000F003FBBDE8F88FB9F1000F72D007F00F
:1035B000010018B906F4907000286BD005F00100E6
:1035C00030B106F4807018B1206C40F00100206426
:1035D00005F0040030B107F0010018B1206C40F094
:1035E0000200206405F0020030B107F0010018B1BC
:1035F000206C40F00400206405F0080048B106F09B
:10360000200010B907F0010018B1206C40F008004C
:103610002064206C70B305F0200028B106F0200073
:1036200010B1204600F0C1FA20684069C0F3801A4A
:10363000206C00F0080010B9BAF1000F23D020462A
:1036400000F088FA2068406900F04000402816D158
:103650002068406920F0400021684861A06B50B1AB
:103660005648A16B0865A06BFEF799FD10B1A06BE1
:10367000016D88470CE02046FFF76FFF08E0204609
:10368000FFF76BFF04E02046FFF767FF0020206490
:1036900088E7FFE7206B012879D105F010000028AA
:1036A00075D006F01000002871D000BF00200090F7
:1036B00020680068009020684068009000BF00BF4C
:1036C0002068406900F04000402839D1A06B0068B4
:1036D00040681FFA80F8B8F1000F30D0A08D404547
:1036E0002DDDA4F82E80A06BC069B0F5807F1FD0BF
:1036F0002068C06820F480702168C8602068406934
:1037000020F00100216848612068406920F04000F5
:1037100021684861202084F83E0000202063206852
:10372000C06820F010002168C860A06BFEF7E2FCC2
:10373000A08DE28D801A81B22046FFF70DFF31E7A0
:10374000A08DE18D401A1FFA80F8E08DE8B1B8F144
:10375000000F1AD02068C06820F490702168C860FB
:103760002068406920F0010021684861202084F829
:103770003E00002020632068C06820F0100021680F
:10378000C86041462046FFF7E7FE0BE7FFE705F07C
:10379000800030B106F0800018B1204600F09DFB9B
:1037A00000E705F0400030B106F0400018B12046B7
:1037B00000F0EBF9F6E600BFF4E60000413B00083C
:1037C00010B504460CB9012010BDA06900B100E09D
:1037D00000BF94F83D0028B9002084F83C00204642
:1037E00000F028F8242084F83D002068C06820F408
:1037F00000502168C860204600F036FA2068006951
:1038000020F49040216808612068406920F02A0077
:10381000216848612068C06840F400502168C86091
:1038200000202064202084F83D0084F83E00002021
:10383000CAE7000010B586B004462E4920688842C9
:1038400055D100BF00BF002000902B48006840F019
:103850001000294908600846006800F01000009038
:1038600000BF00BF00BF00BF00BF00200090224883
:103870001438006840F001001F49143908600846F8
:10388000006800F00100009000BF00BF00BF00BF53
:1038900000BF002000900846006840F0010008606A
:1038A0000846006800F00100009000BF00BF00BFA4
:1038B00048150190022002900120039002200490FC
:1038C0000720059001A90D48FEF75EFE4FF48060C9
:1038D00001900720059001A90848FEF755FE252014
:1038E000FEF7C3FF032211462520FEF7CEFF06B0E8
:1038F00010BD0000001001404438024000000240AA
:1039000070B504460D46164694F83E00202816D1A0
:1039100005B10EB9012070BD00BF94F83C0001282C
:1039200001D10220F7E7012084F83C0000BF00200D
:10393000206332462946204600F0ACFAEBE702202D
:10394000E9E700001D4A0168914236D11C49098807
:1039500001F4004189BB1A49098801F4804171B121
:10396000184909780A2903D00021154A118024E05A
:103970001349098841F40041114A11801DE01149A1
:1039800009780D2906D10E49098841F480410C4A75
:10399000118012E00B490978094A1288C2F30D021E
:1039A000094B995406490988491C054A118011465A
:1039B0000988C72901DD00211180704700100140EE
:1039C0001000002012000020A8A40020704700BFB3
:1039D000FEE700BFFEE77047704700007CB5044675
:1039E0000D461646164800681821B0FBF1F015493F
:1039F000B0FBF1F04FF47A71484301906068B0F584
:103A0000827F0DD12B46002280212046009600F0B7
:103A10001BF898B1606D40F02000606503207CBD0C
:103A200000BF019800B908E00198401E019020688D
:103A30008068C0F3C0100028F3D100BF0020EEE77B
:103A40000000002040420F002DE9F84F04460D46CB
:103A500090461E46DDF82890FEF7B6FEA0EB090062
:103A6000371AFEF7B1FE82462C480068C0F3CB300F
:103A70007843009045E0701C002842D0FEF7A4FE79
:103A8000A0EB0A00B84200D2A7BB2068406820F033
:103A9000E000216848606068B0F5827F0DD1A068C1
:103AA000B0F5004F03D0A068B0F5806F05D1206855
:103AB000006820F0400021680860A06AB0F5005F4F
:103AC0000DD100BF2068006820F400502168086014
:103AD0002068006840F400502168086000BF0120A1
:103AE00084F8510000BF002084F8500000BF03207C
:103AF000BDE8F88FFFE7009800B900270098401E46
:103B00000090206880682840A84201D1012000E090
:103B100000204045AFD10020EAE70000000000206F
:103B2000704710B5FEF756FE10BD00000348006850
:103B300040F47000014908607047000088ED00E023
:103B400070B50546AC6B0020E085E0842046FFF7A9
:103B500004FD70BD0168C96821F490710268D160EC
:103B60000168496921F0010102685161016B012975
:103B700005D10168C96821F010010268D1602021D7
:103B800080F83E1000210163704710B5044620689C
:103B9000C06820F040002168C860202084F83D0003
:103BA0002046FFF713FF002010BD70B5044694F8BF
:103BB0003E00222856D1A068B0F5805F0CD1206964
:103BC00050B90025A66A20684068C0F3080030801C
:103BD000A06A801CA06215E0A56A0026A068B0F566
:103BE000805F03D0A06828B9206918B920684068B0
:103BF000287004E02068406800F07F002870A06A08
:103C0000401CA062E08D401E80B2E08540BB206871
:103C1000C06820F020002168C8602068C06820F4D7
:103C200080702168C8602068406920F00100216828
:103C30004861202084F83E00206B01280AD12068CA
:103C4000C06820F010002168C860A18D2046FFF7F1
:103C500083FC02E02046FFF775FE0020206370BD64
:103C60000020FCE70220FAE72DE9F84F044620681F
:103C7000006920F44050E168084321680861216927
:103C8000A068084361690843E1690843009020681F
:103C9000C06849F20C618843009908432168C860F4
:103CA0002068406920F44070A16908432168486198
:103CB00076492068884203D075492068884203D13C
:103CC000FEF70EFF814602E0FEF7FAFE8146E0694C
:103CD000B0F5004F6CD102206168A0FB0150034693
:103CE0001920A9FB007001462A463846FCF7CDFA98
:103CF0006421B0FBF1F04FEA001A02206168A0FBDA
:103D000001510B461920A9FB00712A463846FCF7E1
:103D1000BCFA834602206168A0FB015003461920CB
:103D2000A9FB00712A463846FCF7AFFA6421B0FBC4
:103D3000F1F000EBC00101EB0010ABEB8000322191
:103D400001EBC0006421B0FBF1F000F0F8000AEBD9
:103D5000400A02206168A0FB015003461920A9FB1C
:103D6000007001462A463846FCF78FFA8346022047
:103D70006168A0FB015003461920A9FB00712A4687
:103D80003846FCF782FA6421B0FBF1F000EBC00189
:103D900001EB0010ABEB8000322101EBC00064218D
:103DA000B0FBF1F000F007005044216888606AE041
:103DB00004206168A0FB015003461920A9FB007094
:103DC00001462A463846FCF760FA824604206168BC
:103DD000A0FB015003461920A9FB007001462A46AA
:103DE0003846FCF752FA6421B0FBF1F000EBC00159
:103DF00001EB0010AAEB8000322101EB00106421DE
:103E0000B0FBF1F000F0F00A04206168A0FB017043
:103E100003461920A9FB00513A462846FCF735FA1B
:103E20006421B0FBF1F00AEB001A04206168A0FBEA
:103E300001510B461920A9FB00712A463846FCF7B0
:103E400024FA834604206168A0FB01500346192030
:103E5000A9FB007001462A463846FCF716FA642191
:103E6000B0FBF1F000EBC00101EB0010ABEB800008
:103E7000322101EB00106421B0FBF1F000F00F00E3
:103E8000504421688860BDE8F88F000000100140B0
:103E90000014014010B5034699629A85DA85002026
:103EA0001864222083F83E0000BF002083F83C0005
:103EB00000BF1868C06840F480701C68E060186833
:103EC000406940F001001C6860611868C06840F0FB
:103ED00020001C68E060002010BD014691F83D0004
:103EE000212828D18868B0F5805F0BD1086948B9CE
:103EF0000A6A1088C0F308000B685860086A801CC2
:103F0000086205E00B6A581C086218780B68586054
:103F1000C88C401E80B2C88458B90868C06820F0B8
:103F200080000B68D8600868C06840F040000B68EB
:103F3000D860002070470220FCE7000070B5002424
:103F40000F4D1048FFF714FB00BF03E0641CAC42A8
:103F500000D904E00B48FFF701FB2028F6D100BF91
:103F6000002403E0641CAC4200D906E001220649AB
:103F70000448FFF7C5FC0028F4D100BF70BD000065
:103F8000FFFF010070A500201200002000BFFEE727
:103F900002480068C0F30220704700000CED00E00A
:103FA00010B5002804DB0A07130E054A135406E077
:103FB0000A07140E034A00F00F031B1FD45410BD50
:103FC00000E400E018ED00E000BF704770B5FF248A
:103FD0000025012143F2230001F08FFD082143F267
:103FE000220001F08AFD09E0012002F0AFFC43F25B
:103FF000230000F0A7FA0446681C85B21CB141F208
:1040000088308542F0DB0CB1052070BDFF2400250F
:10401000012143F2230001F070FD042143F222004C
:1040200001F06BFD09E0012002F090FC43F2230057
:1040300000F088FA0446681C85B21CB141F2883051
:104040008542F0DB0CB10520DFE70020DDE7000052
:104050002DE9F0410026002720214FF4405001F0C7
:104060004CFD4FF40045002407E02848015D284638
:1040700001F043FD681C85B2641C40F6ED7084427B
:10408000F3D3002143F2220001F037FD002143F277
:10409000230001F032FD002143F2240001F02DFD48
:1040A000002143F2250001F028FD002143F2260003
:1040B00001F023FD002143F2270001F01EFD002145
:1040C00043F2280001F019FD7F2143F2290001F09D
:1040D00014FD00214FF4405001F00FFD09E00120D4
:1040E00002F034FC43F2290000F02CFA0646781C5A
:1040F00087B2702E03D041F288308742EFDB702EFA
:1041000002D00520BDE8F0810020FBE736DF000883
:1041100010B508480849086000204860202106487A
:1041200081600021C1600161416181610162FCF730
:1041300019FD10BD0000055020A600202DE9F0411A
:1041400004460D4616461F461248806B056111480D
:10415000806B86610F49886BFEF756F900200D4988
:1041600081F8400008460068C06840F00100096816
:10417000C8603B46224602210648FCF709FF00BF03
:10418000044890F840000028FAD00248FCF776FF77
:10419000BDE8F08120A6002010B500BF00224FF43A
:1041A00000410E48FEF704FB00BF142002F0CEFBD6
:1041B00000BF00224FF400710848FEF7F9FA00BF73
:1041C000052002F0C3FB00BF0122D1030348FEF724
:1041D000EFFA00BF142002F0B9FB10BD0018024036
:1041E00010B543F20A0000F0ADF9040243F20B00EF
:1041F00000F0A8F90443204610BD00002DE9F04767
:1042000081460F469046062F3FD2DFE807F0030CA9
:1042100016202A340024002524480089234949898E
:1042200000FB01F634E04FF4806400251F4800894C
:104230001E49498900FB01F62AE000244FF400558D
:104240001A480089194949894843460820E04FF433
:104250008064E500154800891449498948434608A7
:1042600016E000244FF48045104800890F49498921
:10427000484386080CE04FF4806425010B48008910
:104280000A4949894843860802E00220BDE8F087D0
:1042900000BFB8F1000F00D0C04733462A46214680
:1042A0004846FFF74BFF0020F0E7000012A6002071
:1042B0002DE9FF5F642002F049FB4FF4605000F0ED
:1042C00041F9044643F6010000F03CF9054643F687
:1042D000020000F037F9064643F6030000F032F919
:1042E000074643F6040000F02DF9804643F605002A
:1042F00000F028F9814643F6060000F023F98246D3
:1043000043F6070000F01EF9834604F00F0045EA6B
:104310000020039006F0070047EA0020029008F012
:104320000F0049EA002001900AF007004BEA002044
:10433000009003990198401A044908800299009856
:10434000401A02494880BDE8FF9F000012A60020E5
:104350002DE9F047642002F0F9FA43F6080000F076
:10436000F1F8044643F6090000F0ECF8054643F680
:104370000A0000F0E7F8064643F60B0000F0E2F80A
:10438000074604F00F0045EA002806F0070047EA58
:1043900000290348A0F80880A0F80A90BDE8F0873B
:1043A00012A600202DE9F047642002F0CFFA43F670
:1043B000100000F0C7F8044643F6110000F0C2F800
:1043C000054643F6120000F0BDF8064643F613001A
:1043D00000F0B8F8074604F00F0045EA002806F0A0
:1043E000070047EA0029FFF763FF07480088A0EBB2
:1043F00048000549888008464088A0EB490081B202
:104400000148C180BDE8F08712A6002000B587B042
:10441000142102A8FCF7CFF800BF00BF00200190D4
:104420002348006840F040002149086008460068C1
:1044300000F04000019000BF00BF00BF00BF00BF00
:10444000002001900846006840F0400008600846DF
:10445000006800F04000019000BF00BF00BF4FF4B3
:10446000004002900120039004900220059002A9D0
:104470001048FEF789F84FF4007002900120039075
:1044800004900220059002A90A48FEF77DF800BFBB
:104490000122D1030748FEF78BF900BF00BF0122BC
:1044A00051020448FEF784F900BF07B000BD0000C8
:1044B000303802400018024010B500BF00224FF40F
:1044C00000410948FEF774F900BF142002F03EFADB
:1044D00000BF0122D1030448FEF76AF900BF14208F
:1044E00002F034FA10BD00000018024010B5FFF7CA
:1044F0008DFFFFF751FEFFF7DFFF00F075F801F0C9
:10450000E6FAFFF76DFE044645F24060844201D0B2
:10451000012010BD00F004F8FFF7FAFD0020F8E7D5
:1045200010B5002409E0064A02EB84029178044A9F
:1045300032F8240001F0E1FA641CCF2CF3D310BD53
:10454000A2DA000838B504460020009021463C203D
:1045500000F018F869463C2000F003F89DF80000D0
:1045600038BD70B504460D4600F0FAF8012101EBA4
:104570004401C8B200F038F9284600F07DF800F098
:1045800013F970BD70B505460C4600F0E9F800213E
:1045900041EA4501C8B200F027F9200A00F024F9E9
:1045A000E0B200F021F900F0FFF870BD70B50546EB
:1045B0000C46164600F0D4F8002141EA4501C8B285
:1045C00000F012F9200A00F00FF9E0B200F00CF947
:1045D000304600F009F900F0E7F870BD10B505208D
:1045E00002F0CEF910BD000000B587B0142102A87A
:1045F000FBF7E1FF00BF00BF002001901C480068EE
:1046000040F008001A4908600846006800F00800F9
:10461000019000BF00BF00BF00BF00BF002001909D
:104620000846006840F0080008600846006800F08E
:104630000800019000BF00BF00BF40200290012091
:10464000039004900220059002A90A48FDF79CFF00
:10465000802002900120039004900220059002A97E
:104660000448FDF791FF00F09FF807B000BD00007F
:1046700030380240000C024070B5044600F044F8A7
:1046800007251DE0FFF7AAFF00BF012240211D48BA
:10469000FEF78EF800BF80211A48FEF777F806462D
:1046A000207806FA05F108432070FFF797FF00BF56
:1046B000002240211348FEF77BF800BF681E45B278
:1046C000002DDFDAFFF78AFF00BF012240210D48ED
:1046D000FEF76EF800BFFFF781FF00BF0022402108
:1046E0000848FEF765F800BFFFF778FF00BF00221B
:1046F00080210448FEF75CF800BFFFF76FFF00F071
:1047000019F870BD000C024000B585B01421684650
:10471000FBF751FF802000900020019001200290C3
:104720000220039069460248FDF72EFF05B000BD48
:10473000000C024000B585B014216846FBF73BFF32
:104740008020009001200190029002200390694691
:104750000248FDF719FF05B000BD0000000C024043
:1047600010B500BF012280210E48FEF721F800BFDE
:1047700000BF012240210B48FEF71AF800BFFFF7E7
:104780002DFF00BF002280210648FEF711F800BF70
:10479000FFF724FF00BF002240210248FEF708F87F
:1047A00000BF10BD000C024010B500BF00228021E8
:1047B0000C48FDF7FDFF00BFFFF710FF00BF01220F
:1047C00040210848FDF7F4FF00BFFFF707FF00BFD7
:1047D000012280210348FDF7EBFF00BFFFF7FEFE3B
:1047E00010BD0000000C024070B50646072425E00D
:1047F00046FA04F000F0010500BF2DB1012280212E
:104800001C48FDF7D5FF04E0002280211948FDF780
:10481000CFFF00BFFFF7E2FE00BF01224021154895
:10482000FDF7C6FF00BFFFF7D9FE00BF0022402101
:104830001048FDF7BDFF00BF601E44B2002CD7DA60
:1048400000BF012280210B48FDF7B2FF00BFFFF738
:10485000C5FE00BF012240210648FDF7A9FF00BFA9
:10486000FFF7BCFE00BF002240210248FDF7A0FF79
:1048700000BF70BD000C024010B50446092C6FD279
:10488000DFE804F0051A2F44596F8499AE00FF2128
:1048900045F2010001F031F9402145F2875001F065
:1048A0002CF904214FF4AB4001F027F9012145F226
:1048B000885001F022F9AAE0FF2145F2010001F041
:1048C0001CF9302145F2875001F017F904214FF40B
:1048D000AB4001F012F9012145F2885001F00DF9C9
:1048E00095E0FF2145F2010001F007F9202145F292
:1048F000875001F002F904214FF4AB4001F0FDF8BC
:10490000012145F2885001F0F8F880E0FF2145F2DE
:10491000010001F0F2F8102145F2875001F0EDF8A6
:1049200004214FF4AB4001F0E8F8012145F2885032
:1049300001F0E3F86BE0FF2145F2010001F0DDF842
:10494000002145F2875001F0D8F804214FF4AB4024
:1049500001F0D3F8012145F2885001F0CEF856E07D
:1049600053E0FF2145F2010001F0C7F8102145F2A4
:10497000875001F0C2F804214FF4AB4001F0BDF8BC
:10498000092145F2885001F0B8F840E0FF2145F2D6
:10499000010001F0B2F8202145F2875001F0ADF896
:1049A00004214FF4AB4001F0A8F8092145F28850EA
:1049B00001F0A3F82BE0FF2145F2010001F09DF882
:1049C000302145F2875001F098F804214FF4AB40B4
:1049D00001F093F8092145F2885001F08EF816E0B5
:1049E000FF2145F2010001F088F8402145F287508F
:1049F00001F083F804214FF4AB4001F07EF8092167
:104A000045F2885001F079F801E0022010BD00BFA6
:104A10000020FBE710B50446092C6ED2DFE804F055
:104A2000051F39536E88A2BCD600FF2145F2010054
:104A300001F063F8802145F2835001F05EF8802197
:104A400045F2845001F059F802214FF4AB4001F0D7
:104A500054F8412145F2885001F04FF8D2E0FF218F
:104A600045F2010001F049F8702145F2835001F050
:104A700044F8702145F2845001F03FF802214FF4D0
:104A8000AB4001F03AF8412145F2885001F035F889
:104A9000B8E0FF2145F2010001F02FF8602145F256
:104AA000835001F02AF8602145F2845001F025F886
:104AB00002214FF4AB4001F020F8412145F288502B
:104AC00001F01BF89EE0FF2145F2010001F015F80E
:104AD000502145F2835001F010F8502145F28450E6
:104AE00001F00BF802214FF4AB4001F006F8412130
:104AF00045F2885001F001F884E081E0FF2145F2A1
:104B0000010000F0FAFF402145F2835000F0F5FF6C
:104B1000402145F2845000F0F0FF02214FF4AB40F9
:104B200000F0EBFF412145F2885000F0E6FF69E01C
:104B3000FF2145F2010000F0E0FF302145F28350F3
:104B400000F0DBFF302145F2845000F0D6FF022157
:104B50004FF4AB4000F0D1FF412145F2885000F006
:104B6000CCFF4FE0FF2145F2010000F0C6FF2021FD
:104B700045F2835000F0C1FF202145F2845000F03F
:104B8000BCFF02214FF4AB4000F0B7FF412145F2DA
:104B9000885000F0B2FF35E0FF2145F2010000F03F
:104BA000ACFF102145F2835000F0A7FF102145F221
:104BB000845000F0A2FF02214FF4AB4000F09DFFB3
:104BC000412145F2885000F098FF1BE0FF2145F29B
:104BD000010000F092FF002145F2835000F08DFFAC
:104BE000002145F2845000F088FF02214FF4AB40D1
:104BF00000F083FF412145F2885000F07EFF01E084
:104C0000022010BD00BF0020FBE710B50446092CB0
:104C10006ED2DFE804F0051F39536E88A2BCD600BF
:104C2000FF2145F2010000F068FF04214FF4AB4082
:104C300000F063FF302145F2865000F05EFF302126
:104C400045F2855000F059FF412145F2885000F0AF
:104C500054FFD2E0FF2145F2010000F04EFF042195
:104C60004FF4AB4000F049FF2C2145F2865000F094
:104C700044FF2C2145F2855000F03FFF412145F2D1
:104C8000885000F03AFFB8E0FF2145F2010000F043
:104C900034FF04214FF4AB4000F02FFF282145F2F0
:104CA000865000F02AFF282145F2855000F025FFAC
:104CB000412145F2885000F020FF9EE0FF2145F29F
:104CC000010000F01AFF04214FF4AB4000F015FF83
:104CD000242145F2865000F010FF242145F2855032
:104CE00000F00BFF412145F2885000F006FF84E000
:104CF00081E0FF2145F2010000F0FFFE04214FF4A6
:104D0000AB4000F0FAFE202145F2865000F0F5FE9F
:104D1000202145F2855000F0F0FE412145F28850F7
:104D200000F0EBFE69E0FF2145F2010000F0E5FE36
:104D300004214FF4AB4000F0E0FE1C2145F2865008
:104D400000F0DBFE1C2145F2855000F0D6FE41212B
:104D500045F2885000F0D1FE4FE0FF2145F20100FE
:104D600000F0CBFE04214FF4AB4000F0C6FE18214A
:104D700045F2865000F0C1FE182145F2855000F042
:104D8000BCFE412145F2885000F0B7FE35E0FF211E
:104D900045F2010000F0B1FE04214FF4AB4000F0F9
:104DA000ACFE142145F2865000F0A7FE142145F216
:104DB000855000F0A2FE412145F2885000F09DFE92
:104DC0001BE0FF2145F2010000F097FE04214FF4A3
:104DD000AB4000F092FE102145F2865000F08DFEAF
:104DE000102145F2855000F088FE412145F288509F
:104DF00000F083FE01E0022010BD00BF0020FBE7B1
:104E000010B504460B2C7CD2DFE804F00625446381
:104E100084A3C2E1FEFDFC00102143F60F2000F048
:104E20006CFE082143F6102000F067FE102143F6C7
:104E30001B2000F062FE082143F61E2000F05DFEFC
:104E4000202143F6112000F058FE102143F61F20C8
:104E500000F053FE3DE1182143F60F2000F04DFE17
:104E6000102143F6102000F048FE182143F61B20C5
:104E700000F043FE102143F61E2000F03EFE3021DC
:104E800043F6112000F039FE102143F61F2000F0F8
:104E900034FE1EE1202143F60F2000F02EFE1821E3
:104EA00043F6102000F029FE412143F6112000F0C6
:104EB00024FE202143F61B2000F01FFE182143F69C
:104EC0001E2000F01AFE102143F61F2000F015FEF0
:104ED000FFE0282143F60F2000F00FFE202143F6CB
:104EE000102000F00AFE512143F6112000F005FECB
:104EF000282143F61B2000F000FE202143F61E204F
:104F000000E0E4E000F0F9FD102143F61F2000F07E
:104F1000F4FDDEE0302143F60F2000F0EEFD282105
:104F200043F6102000F0E9FD612143F6112000F066
:104F3000E4FD302143F61B2000F0DFFD282143F67D
:104F40001E2000F0DAFD102143F61F2000F0D5FDF1
:104F5000BFE0382143F60F2000F0CFFD302143F6AB
:104F6000102000F0CAFD612143F6112000F0C5FDBC
:104F7000382143F61B2000F0C0FD302143F61E20EF
:104F800000F0BBFD102143F61F2000F0B6FDA0E0AD
:104F9000402143F60F2000F0B0FD382143F61020E9
:104FA00000F0ABFD712143F6112000F0A6FD402179
:104FB00043F61B2000F0A1FD382143F61E2000F02F
:104FC0009CFD102143F61F2000F097FD81E0482151
:104FD00043F60F2000F091FD402143F6102000F031
:104FE0008CFD802143F6112000F087FD482143F617
:104FF0001B2000F082FD402143F61E2000F07DFDC5
:10500000202102E044E024E004E043F61F2000F009
:1050100074FD5EE0502143F60F2000F06EFD482144
:1050200043F6102000F069FD902143F6112000F0B6
:1050300064FD502143F61B2000F05FFD482143F63C
:105040001E2000F05AFD202143F61F2000F055FDE0
:105050003FE0582143F60F2000F04FFD502143F66A
:10506000102000F04AFD912143F6112000F045FD8B
:10507000582143F61B2000F040FD502143F61E202E
:1050800000F03BFD202143F61F2000F036FD20E01C
:10509000602143F60F2000F030FD582143F6102028
:1050A00000F02BFDA02143F6112000F026FD602129
:1050B00043F61B2000F021FD582143F61E2000F08E
:1050C0001CFD202143F61F2000F017FD01E0022007
:1050D00010BD00BF0020FBE710B504460C2C6FD2BA
:1050E000DFE804F006203A546F89A3BDD7F4F2F14B
:1050F000FF2145F2010000F000FD01214FF4AB401B
:1051000000F0FBFC802145F2815000F0F6FC00210C
:1051100045F2825000F0F1FC322145F2885000F057
:10512000ECFC23E1FF2145F2010000F0E6FC012147
:105130004FF4AB4000F0E1FC6F2145F2815000F0EC
:10514000DCFC402145F2825000F0D7FC322145F2D0
:10515000885000F0D2FC09E1FF2145F2010000F087
:10516000CCFC01214FF4AB4000F0C7FC402145F2DC
:10517000815000F0C2FC6F2145F2825000F0BDFC6E
:10518000322145F2885000F0B8FCEFE0FF2145F2F3
:10519000010000F0B2FC01214FF4AB4000F0ADFC87
:1051A000002145F2815000F0A8FC802145F2825098
:1051B00000F0A3FC022145F2885000F09EFCD5E0EF
:1051C000D2E0FF2145F2010000F097FC01214FF4ED
:1051D000AB4000F092FC402145F2815000F08DFC84
:1051E0006F2145F2825000F088FC022145F2885080
:1051F00000F083FCBAE0FF2145F2010000F07DFCE5
:1052000001214FF4AB4000F078FC6F2145F2815052
:1052100000F073FC402145F2825000F06EFC022148
:1052200045F2885000F069FCA0E0FF2145F2010042
:1052300000F063FC01214FF4AB4000F05EFC8021E4
:1052400045F2815000F059FC002145F2825000F0F7
:1052500054FC012145F2885000F04FFC86E0FF210C
:1052600045F2010000F049FC01214FF4AB4000F091
:1052700044FC6F2145F2815000F03FFC402145F293
:10528000825000F03AFC012145F2885000F035FCD4
:105290006CE0FF2145F2010000F02FFC01214FF4EA
:1052A000AB4000F02AFC402145F2815000F025FC83
:1052B0006F2145F2825000F020FC012145F2885018
:1052C00000F01BFC52E035E01AE0FFE7FF2145F259
:1052D000010000F012FC01214FF4AB4000F00DFC86
:1052E000002145F2815000F008FC802145F28250F7
:1052F00000F003FC312145F2885000F0FEFB35E060
:10530000FF2145F2010000F0F8FB01214FF4AB4012
:1053100000F0F3FB402145F2815000F0EEFB6F21DD
:1053200045F2825000F0E9FB312145F2885000F04F
:10533000E4FB1BE0FF2145F2010000F0DEFB012150
:105340004FF4AB4000F0D9FB6F2145F2815000F0E3
:10535000D4FB402145F2825000F0CFFB312145F2D1
:10536000885000F0CAFB01E0022010BD00BF002001
:10537000FBE710B50446062C78D2DFE804F003788A
:105380008DB1D5FA002143F2064000F0B6FB0421AE
:1053900045F2921000F0B1FBF82145F2911000F0B7
:1053A000ACFB702145F2931000F0A7FBF02145F211
:1053B000941000F0A2FBF02145F2951000F09DFB47
:1053C0003D2145F28D1000F098FB542145F28F10DD
:1053D00000F093FB3D2145F28E1000F08EFB54212E
:1053E00045F2901000F089FBA82145F28B1000F0E7
:1053F00084FBA82145F28C1000F07FFB182145F2B8
:10540000871000F07AFB182145F2881000F075FB38
:105410006E2145F2891000F070FB682145F28A1078
:1054200000F06BFB1C2145F2861000F066FB50215A
:1054300045F2811000F061FB252145F2841000F057
:105440005CFB112145F2821000F057FB142145F25C
:10545000831000F052FB252145F2841000F04DFB33
:10546000242145F2851000F048FBA8E0A5E00021CA
:1054700043F2064000F041FB942145F2831000F016
:105480003CFBFF2145F2911000F037FB002145F273
:10549000921000F032FB92E0012143F2064000F04E
:1054A0002CFB06214FF4505000F027FB1C2143F247
:1054B000014000F022FB042143F2024000F01DFBFA
:1054C000002143F2034000F018FB042143F20440A2
:1054D00000F013FBF32143F2054000F00EFB6EE0F9
:1054E000012143F2064000F008FB04214FF4505024
:1054F00000F003FB102143F2014000F0FEFA04210A
:1055000043F2024000F0F9FA002143F2034000F0B8
:10551000F4FA082143F2044000F0EFFAB62143F216
:10552000054000F0EAFA4AE0012143F2064000F0AB
:10553000E4FA05214FF4505000F0DFFA482143F21D
:10554000014000F0DAFA042143F2024000F0D5FAFB
:10555000002143F2034000F0D0FA072143F2044057
:1055600000F0CBFACF2143F2054000F0C6FA26E066
:10557000FFE7012143F2064000F0BFFA06214FF495
:10558000505000F0BAFA482143F2014000F0B5FA59
:10559000042143F2024000F0B0FA002143F203403C
:1055A00000F0ABFA042143F2044000F0A6FAD32144
:1055B00043F2054000F0A1FA01E0022010BD00BF57
:1055C0000020FBE770B5064636B1012E20D0022E32
:1055D0003AD0032E71D154E043F62000FEF7B2FF1B
:1055E000044604F0F90400BF214643F6200000F011
:1055F00084FA43F62100FEF7A5FF054605F0F905FC
:1056000045F00605294643F6210000F076FA56E0FB
:1056100043F62000FEF796FF044604F0F90444F038
:105620000604214643F6200000F067FA43F6210005
:10563000FEF788FF054605F0F90500BF294643F649
:10564000210000F05AFA3AE043F62000FEF77AFF14
:10565000044604F0F90444F00604214643F6200011
:1056600000F04BFA43F62100FEF76CFF054605F00B
:10567000F90545F00605294643F6210000F03DFAFC
:105680001DE043F62000FEF75DFF044604F0F90438
:1056900000BF214643F6200000F02FFA43F6210018
:1056A000FEF750FF054605F0F90500BF294643F611
:1056B000210000F022FA02E0FFE7022070BD00BFE7
:1056C0000020FBE770B5054615B1012D1ED10EE097
:1056D000002409E0104A02EB840291780E4A32F865
:1056E000240000F00AFA641C2D2CF3D310E00024EF
:1056F00009E00A4A02EB84029178084A32F8240051
:1057000000F0FBF9641C292CF3D301E0022070BDEA
:1057100000BF0020FBE70000DEDD000892DE00088D
:105720002DE9F04704460D4643F60800FEF70AFF50
:10573000064643F60A00FEF705FF074626F00F0669
:10574000C4F30320064304F0FF0827F00707C5F35E
:105750000220074305F0FF09032143F2122000F065
:10576000CCF9314643F6080000F0C7F9414643F64C
:10577000090000F0C2F9394643F60A0000F0BDF90D
:10578000494643F60B0000F0B8F9132143F212200A
:1057900000F0B3F9A32143F2122000F0AEF9FEF7B6
:1057A000D7FD0020BDE8F0872DE9F04704460D46FF
:1057B000C4F30326E7B2C5F3022805F0FF0903216D
:1057C00043F2122000F099F9314643F6100000F040
:1057D00094F9394643F6110000F08FF9414643F63B
:1057E000120000F08AF9494643F6130000F085F9EB
:1057F000132143F2122000F080F9A32143F212207A
:1058000000F07BF9FEF7CEFD0020BDE8F08710B573
:1058100004460A2C7CD2DFE804F005101B26313C3C
:1058200047525D68652145F2083000F066F90021B5
:1058300045F2023000F061F989E0652145F2083057
:1058400000F05BF9022145F2023000F056F97EE0EB
:10585000652145F2083000F050F9042145F202308C
:1058600000F04BF973E0652145F2083000F045F98E
:10587000082145F2023000F040F968E0652145F268
:10588000083000F03AF90C2145F2023000F035F909
:105890005DE0652145F2083000F02FF9102145F256
:1058A000023000F02AF952E0652145F2083000F09C
:1058B00024F9142145F2023000F01FF947E0652178
:1058C00045F2083000F019F9182145F2023000F0D5
:1058D00014F93CE0652145F2083000F00EF9202172
:1058E00045F2023000F009F931E0252145F2083097
:1058F00000F003F908214FF4A64000F0FEF8302133
:1059000045F2013000F0F9F8102145F2023000E0D4
:105910001BE000F0F2F8002145F2033000F0EDF852
:10592000082145F2093000F0E8F8302145F20A304C
:1059300000F0E3F8042145F20B3000F0DEF8062118
:1059400045F20C3000F0D9F801E0022010BD00BF94
:105950000020FBE710B50446072C79D2DFE804F0FD
:10596000040F24394E6379007F2145F2010000F0D5
:10597000C4F800214FF4AB4000F0BFF876E0FF21FF
:1059800045F2010000F0B9F818214FF4AB4000F0E7
:10599000B4F8802145F2835000F0AFF8802145F241
:1059A000845000F0AAF861E0FF2145F2010000F008
:1059B000A4F818214FF4AB4000F09FF8A02145F265
:1059C000835000F09AF8402145F2845000F095F899
:1059D0004CE0FF2145F2010000F08FF818214FF450
:1059E000AB4000F08AF8402145F2835000F085F882
:1059F000A02145F2845000F080F837E0FF2145F205
:105A0000010000F07AF818214FF4AB4000F075F86F
:105A1000802145F2835000F070F8C02145F2845097
:105A200000F06BF822E0FF2145F2010000F065F87C
:105A300018214FF4AB4000F060F8602145F283502C
:105A400000F05BF8602145F2845000F056F80DE05C
:105A50000AE0FF2145F2010000F04FF840214FF429
:105A6000AB4000F04AF801E0022010BD00BF00206A
:105A7000FBE710B5044624B1012C0DD0022C21D136
:105A800015E0002145F23D0000F037F8002144F216
:105A9000417000F032F817E0802145F23D0000F03F
:105AA0002CF8002144F2417000F027F80CE082212C
:105AB00045F23D0000F021F8002144F2417000F071
:105AC0001CF801E0022010BD00BF0020FBE710B56C
:105AD00043F20310FEF736FD044624F0020421468B
